{
  "_format": "hh-sol-artifact-1",
  "contractName": "MerkleDistributor",
  "sourceName": "contracts/pgld_MerkleDistributor.sol",
  "abi": [
    {
      "inputs": [
        {
          "internalType": "address",
          "name": "token_",
          "type": "address"
        },
        {
          "internalType": "bytes32",
          "name": "merkleRoot_",
          "type": "bytes32"
        }
      ],
      "stateMutability": "nonpayable",
      "type": "constructor"
    },
    {
      "anonymous": false,
      "inputs": [
        {
          "indexed": false,
          "internalType": "uint256",
          "name": "index",
          "type": "uint256"
        },
        {
          "indexed": false,
          "internalType": "address",
          "name": "account",
          "type": "address"
        },
        {
          "indexed": false,
          "internalType": "uint256",
          "name": "amount",
          "type": "uint256"
        }
      ],
      "name": "Claimed",
      "type": "event"
    },
    {
      "inputs": [
        {
          "internalType": "uint256",
          "name": "index",
          "type": "uint256"
        },
        {
          "internalType": "address",
          "name": "account",
          "type": "address"
        },
        {
          "internalType": "uint256",
          "name": "amount",
          "type": "uint256"
        },
        {
          "internalType": "bytes32[]",
          "name": "merkleProof",
          "type": "bytes32[]"
        }
      ],
      "name": "claim",
      "outputs": [],
      "stateMutability": "nonpayable",
      "type": "function"
    },
    {
      "inputs": [
        {
          "internalType": "uint256",
          "name": "index",
          "type": "uint256"
        }
      ],
      "name": "isClaimed",
      "outputs": [
        {
          "internalType": "bool",
          "name": "",
          "type": "bool"
        }
      ],
      "stateMutability": "view",
      "type": "function"
    },
    {
      "inputs": [],
      "name": "merkleRoot",
      "outputs": [
        {
          "internalType": "bytes32",
          "name": "",
          "type": "bytes32"
        }
      ],
      "stateMutability": "view",
      "type": "function"
    },
    {
      "inputs": [],
      "name": "token",
      "outputs": [
        {
          "internalType": "address",
          "name": "",
          "type": "address"
        }
      ],
      "stateMutability": "view",
      "type": "function"
    }
  ],
  "bytecode": "0x60c060405273ff9c1b15b16263c61d017ee9f65c50e4ae0113d76000806101000a81548173ffffffffffffffffffffffffffffffffffffffff021916908373ffffffffffffffffffffffffffffffffffffffff160217905550738bf2f876e2dcd2cae9c3d272f325776c82da366d600160006101000a81548173ffffffffffffffffffffffffffffffffffffffff021916908373ffffffffffffffffffffffffffffffffffffffff1602179055507303ea00b0619e19759ee7ba33e8eb8e914fbf52ea600260006101000a81548173ffffffffffffffffffffffffffffffffffffffff021916908373ffffffffffffffffffffffffffffffffffffffff16021790555034801561010e57600080fd5b50604051610ae6380380610ae68339818101604052604081101561013157600080fd5b8101908080519060200190929190805190602001909291905050508173ffffffffffffffffffffffffffffffffffffffff1660808173ffffffffffffffffffffffffffffffffffffffff1660601b815250508060a08181525050505060805160601c60a0516109296101bd6000398061028e52806106e452508061055c528061075a52506109296000f3fe608060405234801561001057600080fd5b506004361061004c5760003560e01c80632e7ba6ef146100515780632eb4a7ab146100fe5780639e34070f1461011c578063fc0c546a14610160575b600080fd5b6100fc6004803603608081101561006757600080fd5b8101908080359060200190929190803573ffffffffffffffffffffffffffffffffffffffff16906020019092919080359060200190929190803590602001906401000000008111156100b857600080fd5b8201836020820111156100ca57600080fd5b803590602001918460208302840111640100000000831117156100ec57600080fd5b9091929391929390505050610194565b005b6101066106e2565b6040518082815260200191505060405180910390f35b6101486004803603602081101561013257600080fd5b8101908080359060200190929190505050610706565b60405180821515815260200191505060405180910390f35b610168610758565b604051808273ffffffffffffffffffffffffffffffffffffffff16815260200191505060405180910390f35b61019d85610706565b156101f3576040517f08c379a00000000000000000000000000000000000000000000000000000000081526004018080602001828103825260288152602001806108886028913960400191505060405180910390fd5b6000858585604051602001808481526020018373ffffffffffffffffffffffffffffffffffffffff1660601b815260140182815260200193505050506040516020818303038152906040528051906020012090506102b3838380806020026020016040519081016040528093929190818152602001838360200280828437600081840152601f19601f820116905080830192505050505050507f00000000000000000000000000000000000000000000000000000000000000008361077c565b610308576040517f08c379a00000000000000000000000000000000000000000000000000000000081526004018080602001828103825260218152602001806108b06021913960400191505060405180910390fd5b61031186610831565b60008573ffffffffffffffffffffffffffffffffffffffff1690506000611f4082116103ea5760008054906101000a900473ffffffffffffffffffffffffffffffffffffffff1673ffffffffffffffffffffffffffffffffffffffff16636352211e836040518263ffffffff1660e01b81526004018082815260200191505060206040518083038186803b1580156103a857600080fd5b505afa1580156103bc573d6000803e3d6000fd5b505050506040513d60208110156103d257600080fd5b8101908080519060200190929190505050905061055a565b613e8082116104a857600160009054906101000a900473ffffffffffffffffffffffffffffffffffffffff1673ffffffffffffffffffffffffffffffffffffffff16636352211e836040518263ffffffff1660e01b81526004018082815260200191505060206040518083038186803b15801561046657600080fd5b505afa15801561047a573d6000803e3d6000fd5b505050506040513d602081101561049057600080fd5b81019080805190602001909291905050509050610559565b600260009054906101000a900473ffffffffffffffffffffffffffffffffffffffff1673ffffffffffffffffffffffffffffffffffffffff16636352211e836040518263ffffffff1660e01b81526004018082815260200191505060206040518083038186803b15801561051b57600080fd5b505afa15801561052f573d6000803e3d6000fd5b505050506040513d602081101561054557600080fd5b810190808051906020019092919050505090505b5b7f000000000000000000000000000000000000000000000000000000000000000073ffffffffffffffffffffffffffffffffffffffff1663a9059cbb82886040518363ffffffff1660e01b8152600401808373ffffffffffffffffffffffffffffffffffffffff16815260200182815260200192505050602060405180830381600087803b1580156105eb57600080fd5b505af11580156105ff573d6000803e3d6000fd5b505050506040513d602081101561061557600080fd5b810190808051906020019092919050505061067b576040517f08c379a00000000000000000000000000000000000000000000000000000000081526004018080602001828103825260238152602001806108d16023913960400191505060405180910390fd5b7f4ec90e965519d92681267467f775ada5bd214aa92c0dc93d90a5e880ce9ed026888288604051808481526020018373ffffffffffffffffffffffffffffffffffffffff168152602001828152602001935050505060405180910390a15050505050505050565b7f000000000000000000000000000000000000000000000000000000000000000081565b600080610100838161071457fe5b0490506000610100848161072457fe5b0690506000600360008481526020019081526020016000205490506000826001901b90508081831614945050505050919050565b7f000000000000000000000000000000000000000000000000000000000000000081565b60008082905060005b855181101561082357600086828151811061079c57fe5b602002602001015190508083116107e35782816040516020018083815260200182815260200192505050604051602081830303815290604052805190602001209250610815565b808360405160200180838152602001828152602001925050506040516020818303038152906040528051906020012092505b508080600101915050610785565b508381149150509392505050565b6000610100828161083e57fe5b0490506000610100838161084e57fe5b069050806001901b600360008481526020019081526020016000205417600360008481526020019081526020016000208190555050505056fe4d65726b6c654469737472696275746f723a2044726f7020616c726561647920636c61696d65642e4d65726b6c654469737472696275746f723a20496e76616c69642070726f6f662e4d65726b6c654469737472696275746f723a205472616e73666572206661696c65642ea2646970667358221220d5dc45a92ec942367f2adee527ad1d05e9aad4aadb12ed00a976f037948363f264736f6c634300060c0033",
  "linkReferences": {},
  "deployedLinkReferences": {}
}